:03000000020357A1
:0C035700787FE4F6D8FD75814E02039E0D
:10050500202008008000000080C0C0FEFFFFBFAFB4
:100515002F0F000007070EFFFF3F3FFF07070000F3
:10052500000000062FFFFFFFFFFFFF072800010067
:0F053500000801FF023500000237000001390005
:1005CB00758901758AFF758CDBD28CD2A9D2AFC22B
:0205DB00B92243
:03000B000203E30A
:1003E300C0E0C0D00538E53870020537758CDB7581
:1003F3008AFFC3E5389405E53794004031E52D14B1
:10040300600B047010E528600C15288008E528644B
:100413006F60020528E52E700F05390529E539B40B
:100423000A06753900752E01753700753800D0D06E
:03043300D0E032E4
:0100030022DA
:100545001205CB1205EE7F057E001205B8AB2AAA6F
:100555002BA92C852D3F852E40AD29AF2812000EE5
:0205650080EB29
:1005B800EF1FAA0670011E4A60087D6E1DED60F0EF
:0205C80080FAB7
:0105CA00220E
:1005A400C290D291E4F5A0D29200E5A05480FFC29B
:0305B4009270F151
:0105B7002221
:1005DD00EF146008047009C293D29422D293C2948E
:0105ED0022EB
:0C056700E53A4440FF120573ED44B8FF74
:10057300AE071205A4C290C29100D292008EA000D1
:03058300C29222FF
:0B05860014F9120436FFC374FF9FFF3E
:10059100AE071205A4D290C29100D292008EA000A3
:0305A100C29222E1
:10047C00E4FF1205DDE4FCEC24B8FF1205737F40A9
:10048C00120573E4FDE4FF1205910DBD40F70CBCA1
:10049C0008E57F011205DDE4FCEC24B8FF120573BE
:1004AC007F40120573E4FDE4FF1205910DBD40F78A
:0404BC000CBC08E587
:0104C0002219
:1005EE001205A47FC01205737F3F12057302047CAF
:08016B008F438B448A4589464D
:10017300E543D3943F400D7F011205DD74C0254351
:10018300F5438005E4FF1205DDE5434440FF120516
:1001930073AF050DEF44B8FF120573ED20E71DE4BF
:1001A300FCAB440546E546AA457002054514F91221
:1001B3000436FF1205910CBC08E78015E4FCAB4440
:1001C3000546E546AA45700205451205860CBC089E
:1001D300EDE543120569ED20E71CE4FCAB4405465D
:1001E300E546AA457002054514F9120436FF1205C7
:1001F300910CBC08E722E4FCAB440546E546AA455E
:0B020300700205451205860CBC08EDDA
:01020E0022CD
:08020F008F478B488A49894A98
:10021700E547D3943F400D7F011205DD74C02547A4
:10022700F5478005E4FF1205DDE5474440FF120569
:1002370073AF050DEF44B8FF120573ED20E71DE41A
:10024700FCAB48054AE54AAA497002054914F91268
:100257000436FF1205910CBC10E78015E4FCAB488F
:10026700054AE54AAA49700205491205860CBC10E1
:10027700EDE547120569ED20E71CE4FCAB48054AAC
:10028700E54AAA497002054914F9120436FF120516
:10029700910CBC10E722E4FCAB48054AE54AAA49A1
:0B02A700700205491205860CBC10ED2A
:0102B2002229
:0802B3008F4B8B4C8A4D894EE4
:1002BB00E54BD3943F400D7F011205DD74C0254BF8
:1002CB00F54B8005E4FF1205DDE54B4440FF1205BD
:1002DB0073AF050DEF44B8FF120573ED20E71DE476
:1002EB00FCAB4C054EE54EAA4D7002054D14F912B0
:1002FB000436FF1205910CBC08E78015E4FCAB4CEF
:10030B00054EE54EAA4D7002054D1205860CBC0834
:10031B00EDE54B120569ED20E71CE4FCAB4C054EFB
:10032B00E54EAA4D7002054D14F9120436FF120565
:10033B00910CBC08E722E4FCAB4C054EE54EAA4DF4
:0B034B007002054D1205860CBC08ED89
:010356002284
:08000E008F3A8B3C8A3D893ECC
:10001600E53AB43F047F0180027F008F41E4F54258
:10002600E53AD3942F4016E53A943F5010E53F1435
:1000360060080470087542018003754202E53AD3F0
:10004600943F400D7F011205DD74C0253AF53A80D4
:1000560005E4FF1205DD120567ED20E746E54224BB
:10006600FE601E24027053E4FCAB3CAA3DA93E8C04
:100076008275830012044FFF1205910CBC10EA80B2
:1000860039E4FCC3743F953AFFECC39F502CAB3C5C
:10009600AA3DA93E8C8275830012044FFF1205917A
:1000A6000C80E0E4FCAB3CAA3DA93E8C8275830043
:1000B60012044F12058B0CBC10EBE53A4440FF12BC
:1000C6000573ED0444B8FF120573ED20E74EE542D3
:1000D60024FE60222402705FE4FCEC2410F582E426
:1000E60033F583AB3CAA3DA93E12044FFF1205919E
:1000F6000CBC10E68041E4FCC3743F953AFFECC3A8
:100106009F5034EC2410F582E433F583AB3CAA3DD2
:10011600A93E12044FFF1205910C80DCE4FCEC248E
:1001260010F582E433F583AB3CAA3DA93E12044F99
:1001360012058B0CBC10E7E5416029120567E4FC4B
:10014600E4FF1205910CBC10F7E53A4440FF120596
:1001560073ED0444B8FF120573E4FCE4FF12059145
:040166000CBC10F7C6
:01016A002272
:0204C100AC0786
:1004C300ECD3943F400B7F011205DD74C02CFC80FC
:1004D30005E4FF1205DDEC4440FF120573AF050D83
:1004E300EF44B8FF120573E4FBE4FF1205910BBB65
:1004F30010F7EC120569E4FBE4FF1205910BBB1046
:01050300F700
:0105040022D4
:10036300020545E493A3F8E493A34003F68001F266
:1003730008DFF48029E493A3F85407240CC8C3339B
:10038300C4540F4420C8834004F456800146F6DF6A
:10039300E4800B0102040810204080900505E47EF0
:1003A300019360BCA3FF543F30E509541FFEE4935F
:1003B300A360010ECF54C025E060A840B8E493A326
:1003C300FAE493A3F8E493A3C8C582C8CAC583CA51
:1003D300F0A3C8C582C8CAC583CADFE9DEE780BE09
:0105440000B6
:10043600BB010689828A83E0225002E722BBFE02C4
:09044600E32289828A83E49322F7
:10044F00BB010CE58229F582E5833AF583E0225062
:10045F0006E92582F8E622BBFE06E92582F8E222AC
:0D046F00E58229F582E5833AF583E49322C6
:00000001FF
