:0300000002056591
:0C056500787FE4F6D8FD75817E0205ACBD
:1006D200202048FFFFFFFFFFFFFFFFFFFFFFFFFF9D
:1006E200FFFFFFFFFFFFFFFFFFFFFFFFFFFFFFFF18
:1006F200FFFFFF0668FFFFFFFFFFFF074100060045
:0F0702000048FF01026E0000027000000172004B
:1007C900758901758AFF758CDBD28CD2A9D2AFC22B
:0207D900B92243
:03000B000205F1FA
:1005F100C0E0C0D00571E57170020570758CDB75C6
:100601008AFFC3E571940AE57094004039E5461408
:10061100600B047010E541600C15418008E54164F0
:100621006F60020541E547146014047013057215EB
:1006310042E572B40A0A75720075470180020542EB
:0B064100757000757100D0D0D0E03261
:0100030022DA
:100742001207C91207EC7F057E001207B6AB43AA57
:1007520044A94585460D85470EAD42AF4112000EB4
:0207620080EB2A
:1007B600EF1FAA0670011E4A60087D6E1DED60F0EF
:0207C60080FAB7
:0107C800220E
:1007120000000000000000000000000000000000D7
:1007220000000000000000000000000000000000C7
:1007320000000000000000000000000000000000B7
:1007A200C290D291E4F5A0D29200E5A05480FFC29B
:0307B2009270F151
:0107B5002221
:1007DB00EF146008047009C293D29422D293C2948E
:0107EB0022EB
:0D0764004440FF120771AF050DEF44B8FFD0
:10077100AE071207A2C290C29100D292008EA000D1
:03078100C29222FF
:0B07840014F912033CFFC374FF9FFF39
:10078F00AE071207A2D290C29100D292008EA000A3
:03079F00C29222E1
:10064C00E4FF1207DBE4FCEC24B8FF1207717F40D7
:10065C00120771E4FDE4FF12078F0DBD40F70CBCCF
:10066C0008E57F011207DBE4FCEC24B8FF120771EC
:10067C007F40120771E4FDE4FF12078F0DBD40F7B8
:04068C000CBC08E5B5
:010690002247
:1007EC001207A27FC01207717F3F12077102064CDD
:080382008F738B748A75897674
:10038A00E573D3943F400D7F011207DB74C02573D8
:10039A00F5738005E4FF1207DBE573120764ED20AD
:1003AA00E71DE4FCAB740576E576AA75700205755F
:1003BA0014F912033CFF12078F0CBC08E78015E4FE
:1003CA00FCAB740576E576AA75700205751207848A
:1003DA000CBC08EDE5734440FF120771ED44B8FF09
:1003EA00120771ED20E71CE4FCAB740576E576AAEA
:1003FA00757002057514F912033CFF12078F0CBCC5
:10040A0008E722E4FCAB740576E576AA7570020566
:08041A00751207840CBC08ED0B
:0104220022B7
:080423008F778B788A79897AC2
:10042B00E577D3943F400D7F011207DB74C025772E
:10043B00F5778005E4FF1207DBE577120764ED2003
:10044B00E71DE4FCAB78057AE57AAA7970020579A9
:10045B0014F912033CFF12078F0CBC10E78015E454
:10046B00FCAB78057AE57AAA7970020579120784D4
:10047B000CBC10EDE5774440FF120771ED44B8FF5B
:10048B00120771ED20E71CE4FCAB78057AE57AAA3C
:10049B00797002057914F912033CFF12078F0CBC1B
:1004AB0010E722E4FCAB78057AE57AAA79700205AD
:0804BB00791207840CBC10ED5E
:0104C3002216
:0804C4008F7B8B7C8A7D897E11
:1004CC00E57BD3943F400D7F011207DB74C0257B85
:1004DC00F57B8005E4FF1207DBE57B120764ED205A
:1004EC00E71DE4FCAB7C057EE57EAA7D7002057DF4
:1004FC0014F912033CFF12078F0CBC08E78015E4BB
:10050C00FCAB7C057EE57EAA7D7002057D1207841E
:10051C000CBC08EDE57B4440FF120771ED44B8FFBD
:10052C00120771ED20E71CE4FCAB7C057EE57EAA8E
:10053C007D7002057D14F912033CFF12078F0CBC71
:10054C0008E722E4FCAB7C057EE57EAA7D70020503
:08055C007D1207840CBC08EDC0
:010564002274
:08000E008F088B0A8A0B890C94
:10001600ED131313541FF50FED5407FFC374089F18
:10002600F510E4FDE508D3942F4014E508943F50FD
:100036000EE50D1460070470067D0180027D02E561
:1000460008D3943F400D7F011207DB74C02508F5E5
:10005600088014E508B43F0A7F011207DBE4F508BF
:100066008005E4FF1207DBE510600302012CE508BA
:100076004440FF120771E50F44B8FF120771ED24E3
:10008600FE601E2402703CE4FCAB0AAA0BA90C8C91
:1000960082758300120355FF12078F0CBC10EA808D
:1000A60022E4FCC3743F9508FFECC39F5015AB0ACE
:1000B600AA0BA90C8C82758300120355FF12078FB9
:1000C6000C80E0E5084440FF120771E50F0444B8D0
:1000D600FF120771ED24FE6024240260030202452C
:1000E600E4FCEC2410F582E433F583AB0AAA0BA9F1
:1000F6000C120355FF12078F0CBC10E622E4FCC35A
:10010600743F9508FFECC39F4003020245EC2410A0
:10011600F582E433F583AB0AAA0BA90C120355FF4B
:0601260012078F0C80D9C6
:10012C0078117C007D007BFF7A0779127E007F10AE
:10013C0012031678217C007D007BFF7A0779227EE2
:10014C00007F1012031678317C007D007BFF7A074C
:10015C0079327E007F10120316E4FCAB0AAA0BA9BD
:10016C000C8C82758300120355FFC374089510FE26
:10017C00F8EF088002C333D8FCFF74112CF8E64F5B
:10018C00F6EC2410F582E433F583120355FFA80630
:10019C00088002C333D8FCFF8C8275830012035590
:1001AC00FEAD10A805088002C313D8FC4FFF7421C4
:1001BC002CF8A607EC2410F582E433F583120355D2
:1001CC00FFAE10A806088002C313D8FCFF74312CB4
:1001DC00F8A6070CEC64107082E5084440FF120787
:1001EC0071E50F44B8FF120771E4FC74112CF8E6AA
:1001FC00FF12078F0CBC10F3E5084440FF12077187
:10020C00E50F0444B8FF120771E4FC74212CF8E6E6
:10021C00FF12078F0CBC10F3E5084440FF12077166
:10022C00E50F240244B8FF120771E4FC74312CF87A
:09023C00E6FF12078F0CBC10F361
:010245002296
:02069100AC07B4
:10069300ECD3943F400B7F011207DB74C02CFC802A
:1006A30005E4FF1207DBEC120764E4FBE4FF120727
:1006B3008F0BBB10F7EC4440FF120771ED44B8FFFA
:0E06C300120771E4FBE4FF12078F0BBB10F768
:0106D1002206
:10057100020742E493A3F8E493A34003F68001F257
:1005810008DFF48029E493A3F85407240CC8C3338B
:10059100C4540F4420C8834004F456800146F6DF5A
:1005A100E4800B01020408102040809006D2E47E12
:1005B100019360BCA3FF543F30E509541FFEE4934F
:1005C100A360010ECF54C025E060A840B8E493A316
:1005D100FAE493A3F8E493A3C8C582C8CAC583CA41
:1005E100F0A3C8C582C8CAC583CADFE9DEE780BEF9
:0107110000E7
:10024600E709F608DFFA8046E709F208DFFA803E9A
:1002560088828C83E709F0A3DFFA8032E309F60887
:10026600DFFA8078E309F208DFFA807088828C83EF
:10027600E309F0A3DFFA806489828A83E0A3F608A3
:10028600DFFA805889828A83E0A3F208DFFA804C7D
:1002960080D280FA80C680D4806980F28033801054
:1002A60080A680EA809A80A880DA80E280CA8033BD
:1002B60089828A83ECFAE493A3C8C582C8CCC58335
:1002C600CCF0A3C8C582C8CCC583CCDFE9DEE78005
:1002D6000D89828A83E493A3F608DFF9ECFAA9F084
:1002E600EDFB2289828A83ECFAE0A3C8C582C8CCDA
:1002F600C583CCF0A3C8C582C8CCC583CCDFEADEF3
:10030600E880DB89828A83E493A3F208DFF980CC54
:1003160088F0EF60010E4E60C388F0ED2402B4044D
:100326000050B9F582EB2402B4040050AF232345F4
:0603360082239002967381
:10033C00BB010689828A83E0225002E722BBFE02BF
:09034C00E32289828A83E49322F2
:10035500BB010CE58229F582E5833AF583E022505D
:1003650006E92582F8E622BBFE06E92582F8E222A7
:0D037500E58229F582E5833AF583E49322C1
:00000001FF
