:0300000002105596
:0C105500787FE4F6D8FD75813602109C0F
:10123F0060200000000000007C86020101011901FE
:10124F00011982FC0020302CE281E0A8282AEE80D0
:10125F00FA8B0F00011C0001120009130127010076
:10126F0000FF0000FF0A0801371E561E8050AC6EAB
:10127F00CE011E00011F00C101C102C100C103C187
:0D128F00844600201E042D466E5A011D00ED
:100E090020B4FD7F0A12148A1214221214AD7F0530
:100E190012148A020ED9E51C6003020EDFE51BF4E9
:100E29006017E51B25E02408F8E6FFE51B25E0240B
:100E390009F8E6FDD205120BC97B007A0079131275
:100E490007F1E4F533E51B65336025E53325E02437
:100E590009F8E6FDD394375017E53325E02408F85F
:100E6900E6FFEDD3940750028001C39205120BC926
:100E79000533E533C3940540CC20B413E51AB40116
:100E890007AD14AF13121369E4F518F51A80192088
:100E9900B513E51A7007AD14AF131213697518016C
:100EA900751A0180037518FF300405C204120CF687
:100EB900300105C201121402300205C202121339AF
:100EC900300005C20012129D200303020E1FC20347
:0B0ED9001210E1020E1F1211E080FE5B
:10148A00AE071FEE600B75346E1534E53460F180DB
:01149A00F859
:01149B00222E
:10142200758911758AFF758CDB758BFF758DFFD2FF
:0C1432008CD2A9D28ED2ABD2AFD2B9229C
:03000B000212F3EB
:1012F300C0E0C0F0C0D075D000C007051E758CDB00
:10130300758AFFE51E75F00584E5F07006E51E603D
:1013130002D201E51E75F00A84AFF0EF7006E51EF8
:101323006002D202EF7006E51E6002D200D007D041
:06133300D0D0F0D0E03242
:03001B0002139835
:10139800C0E0C0F0C0D075D000C007AF1F051FEF78
:1013A80075F03284E5F07006E51F6002D203D007BD
:0713B800D0D0D0F0D0E032EC
:100CF6007534FFE51BF46070E5142410FFE433FE41
:100D0600E51B25E02409F8E6FDFBD3EF9B7480F88C
:100D16006E98E51440082410C39DF535800F241005
:100D2600FFE51B25E02409F8E6C39FF535E535D335
:100D360094035034E513240AFFE433FEE51B25E053
:100D46002408F8E6FD7C00C3EF9D7480F86E984099
:100D560017ED240FFFEC33FED3E5139FEE6480F806
:100D66007480985003020E08E4F536E5142410FF4B
:100D7600E433FEE53625E02409F8E6FDFBD3EF9BD8
:100D86007480F86E98E51440082410C39DF53580EC
:100D96000F2410FFE53625E02409F8E6C39FF53554
:100DA600E535D394035045E513240AFFE433FEE505
:100DB6003625E02408F8E6FD7C00C3EF9D7480F834
:100DC6006E984028ED240FFFEC33FED3E5139FEE1B
:100DD6006480F87480985014E4F519E53625E0240B
:100DE60009F8E624F0F514853634800B0536E53629
:100DF60064056003020D7185341BE51BB4FF0375A2
:020E06001901D0
:010E080022C7
:10140200E51814600F047017E513D394014010150A
:1014120013D20422E513C3946F50040513D204229D
:10133900E51914601B047027E51BF46022E51B25E1
:10134900E02409F8E624F0F514C394015011800C47
:10135900E514C3943050050514D20422751C0322E8
:10129D00E4F534E53425E02409F8E6FDD394014066
:1012AD0003168036E53425E02408F8E6FF120EE437
:1012BD00D203AF1D051DEF75F00684742025F0F5E2
:1012CD0082E43400F583E0FFE53425E02408F8A638
:1012DD0007E53425E02409F8766C0534E534C3942C
:0512ED000540B0D20431
:0112F20022D9
:10147500C290D291E4F5A0D29200E5A05480F53651
:04148500C29270F0AF
:011489002240
:10149C00EF146008047009C293D29422D293C294C0
:0114AC00221D
:1013BF00900029E0FBA3E0FAA3E0F9120FB8444034
:0113CF00FF1E
:1013D000121475C290C29100D292008FA000C292E6
:0113E00022EA
:1013E100740FC39FFFE494008F82F583120FD1FF26
:1013F100121475D290C29100D292008FA000C292B5
:0114010022C8
:10143E0012147575A0FFC292D290D291D292000072
:0B144E000085A035000000C292AF3501
:011459002270
:1011E000E4FF12149CE4F534E53424B8FF1213D064
:1011F0007F401213D0E4F535E4FF1213F10535E515
:1012000035C3944040F20534E534C3940840D97F97
:101210000112149CE4F534E53424B8FF1213D07F96
:10122000401213D0E4F535E4FF1213F10535E5352E
:0E123000C3944040F20534E534C3940840D91D
:01123E00228D
:1014AD001214757FC01213D07F3F1213D00211E0BA
:050BC900900026EFF092
:100BCE00ED131313541FF521ED5407F522EFD394B3
:100BDE003F400B7F0112149CE024C0F08005E4FF1F
:100BEE0012149CE522702D900026E04440FF121353
:100BFE00D0E52144B8FF1213D07F0F1213F17534D4
:100C0E00017F091213F10534E534C3940F40F27FCE
:100C1E000F0213F1900026E04440FF1213D0E5219D
:100C2E0044B8FF1213D030050BE0FFAB22AD2112FA
:100C3E0011648045AF22A807740F088002C333D811
:100C4E00FCF523FF1213F1753401AF22A8077409C6
:100C5E00088002C333D8FCF523FF1213F10534E5E7
:100C6E0034C3940F40E4AF22A807740F088002C368
:100C7E0033D8FCF523FF1213F1900026E04440FF19
:100C8E001213D0E5210444B8FF1213D0C374089593
:100C9E0022FFF8740F088002C313D8FCF523FF124D
:100CAE0013F1753401C374089522FFF87409088096
:100CBE0002C313D8FCF523FF1213F10534E534C338
:100CCE00940F40E1C374089522FFF8740F08800258
:100CDE00C313D8FCF523FF1213F1E4F534E4F52326
:070CEE000534E534B410F6F3
:010CF50022DC
:0B07F100900026EBF0A3EAF0A3E9F073
:1007FC00120FB8FFF535900001120FD1FE13131331
:10080C00541FF521EE5407F522EFD3942F401E9080
:10081C000026E0FBA3E0FAA3E0F9120FB8C3944062
:10082C00500B90002DE522F0AD2102001ED3E535D2
:10083C00648094BF400D7F0112149C74C02535F563
:10084C00358005E4FF12149C900026E0FBA3E0FA2F
:10085C00A3E0F9900001120FD1145407700B120F82
:10086C00B8FFE52114FD12145AE522600302096D4C
:10087C00900026E0FBA3E0FAA3E0F9900007120F2A
:10088C00D164017070E5354440FF1213D0E521446A
:10089C00B8FF1213D0E4F534900026E0FBA3E0FA85
:1008AC00A3E0F9900002120FFE85348275830012CA
:1008BC0013ED0534E534C3941040DDE5354440FFB9
:1008CC001213D0E5210444B8FF1213D0E4F5349090
:1008DC000026E0FBA3E0FAA3E0F9900002120FFE61
:1008EC0074102534F582E4331213EB0534E534C36C
:1008FC00941040DB22E5354440FF1213D0E521442F
:10090C00B8FF1213D0E4F534900026E0FBA3E0FA14
:10091C00A3E0F9900002120FFEC3740F953412136A
:10092C00E50534E534C3941040DEE5354440FF1250
:10093C0013D0E5210444B8FF1213D0E4F534900031
:10094C0026E0FBA3E0FAA3E0F9900002120FFEC32D
:10095C00741F95341213E50534E534C3941040DE4E
:10096C0022900026E0FBA3E0FAA3E0F99000071226
:10097C000FD164016003020A8AE5354440FF12136B
:10098C00D0E52144B8FF1213D0E4F534900026E0F2
:10099C00FBA3E0FAA3E0F9900002120FFE8534826B
:1009AC00758300120FD1FFAE22A806088002C33354
:1009BC00D8FCF523FF1213F10534E534C394104031
:1009CC00CBE5354440FF1213D0E5210444B8FF12A7
:1009DC0013D0E4F534900026E0FBA3E0FAA3E0F991
:1009EC00900002120FFE74102534F582E433F58367
:1009FC00120FD1FFAE22A806088002C333D8FCFF29
:100A0C00853482758300120FD1FEC374089522FDC4
:100A1C00F8EE088002C313D8FC4FF523FF1213F134
:100A2C000534E534C3941040ACE5354440FF121353
:100A3C00D0E521240244B8FF1213D0E4F534900021
:100A4C0026E0FBA3E0FAA3E0F9900002120FFE747B
:100A5C00102534F582E433F583120FD1FFC37408EB
:100A6C009522FEF8EF088002C313D8FCF523FF1281
:100A7C0013F10534E534C3941040C3020BA0E535E3
:100A8C004440FF1213D0E52144B8FF1213D0E4F513
:100A9C0034900026E0FBA3E0FAA3E0F990000212E8
:100AAC000FFEC3740F9534FFE494008F82F583120C
:100ABC000FD1FFAE22A806088002C333D8FCF52361
:100ACC00FF1213F10534E534C3941040C4E53544EA
:100ADC0040FF1213D0E5210444B8FF1213D0E4F503
:100AEC0034900026E0FBA3E0FAA3E0F99000021298
:100AFC000FFEAF347E00C3740F9FFDE49E8D82F514
:100B0C0083120FD1FDC374089522FCF8ED08800206
:100B1C00C313D8FCFDC3741F9FFFE49E8F82F58323
:100B2C00120FD1FFAE22A806088002C333D8FC4DA9
:100B3C00F523FF1213F10534E534C3941040A2E5FC
:100B4C00354440FF1213D0E521240244B8FF1213A0
:100B5C00D0E4F534900026E0FBA3E0FAA3E0F99092
:100B6C000002120FFEC3741F9534FFE494008F82B1
:100B7C00F583120FD1FFC374089522FEF8EF08809D
:100B8C0002C313D8FCF523FF1213F10534E534C36B
:100B9C00941040C0E4F523900026E0FBA3E0FAA3F8
:100BAC00E0F9900008120FD1F46011753401742330
:0C0BBC002534F8E4F60534E534B410F2FA
:010BC800220A
:020EE400AE0757
:100EE600ED131313541FF521ED5407FFC374089F28
:100EF600F522EED3943F400B7F0112149C74C02E52
:100F0600FE8005E4FF12149CE5227042EE4440FF89
:100F16001213D0E52144B8FF1213D0E4F535E4FFEF
:100F26001213F10535E535C3941040F2EE4440FF47
:100F36001213D0E5210444B8FF1213D0E4F535E4CA
:100F4600FF1213F10535E535C3941040F222EE4445
:100F560040FF1213D0E52144B8FF1213D0E4F53553
:100F6600E4FF1213F10535E535C3941040F2EE4463
:100F760040FF1213D0E5210444B8FF1213D0E4F564
:100F860035E4FF1213F10535E535C3941040F2EE52
:100F96004440FF1213D0E521240244B8FF1213D0B7
:100FA600E4F535E4FF1213F10535E535C394104039
:010FB600F248
:010FB7002217
:1010E100E4FF12149CE4F534E5344440FF1213D0BC
:1010F1007FB81213D07F011213F10534E534C39484
:101101004040E5E4F5347F401213D0E53444B8FFA4
:101111001213D07FFF1213F10534E534C394084054
:10112100E57F0112149CE4F534E5344440FF1213C9
:10113100D07FB81213D07F011213F10534E534C307
:10114100944040E5E4F5347F7F1213D0E53444B890
:10115100FF1213D07FFF1213F10534E534C3940855
:0211610040E567
:011163002269
:02116400AE07D4
:1011660012143E12143EA803740F088002C333D82B
:10117600FC4FF5237C0112143E12143EC374089BE7
:10118600FAF874FF088002C313D8FC5FFFA8037443
:1011960009088002C333D8FC4FFF74232CF8A60736
:1011A6000CECB40FD112143E12143EAC03A8047416
:1011B6000F088002C333D8FC4FF532EE4440FF12CD
:1011C60013D0ED44B8FF1213D0E4FC74232CF8E6D8
:0911D600FF1213F10CECB410F24D
:0111DF0022ED
:10001E0090002CEDF0900029EBF0A3EAF0A3E9F0AC
:10002E00120FB8FFC3743F9F90002FF090002DE089
:10003E00600302028E900029E0FBA3E0FAA3E0F930
:10004E00900007120FD1640160030200E7EF4440F5
:10005E00FF1213D090002CE044B8FF1213D0E4909E
:10006E00002EF090002FE0FF90002EE0FEC39F5078
:10007E0021900029E0FBA3E0FAA3E0F99000021220
:10008E000FFE8E827583001213ED90002EE004F0A9
:10009E0080D11213BF90002CE00444B8FF1213D08D
:1000AE00E490002EF090002FE0FF90002EE0FEC3B3
:1000BE009F4003020166900029E0FBA3E0FAA3E053
:1000CE00F9900002120FFEEE2410F582E4331213A3
:1000DE00EB90002EE004F080CC1213BF90002CE0C9
:1000EE0044B8FF1213D0E490002EF090002FE0FFE2
:1000FE0090002EE0FEC39F501E900029E0FBA3E06F
:10010E00FAA3E0F9900002120FFEEEFF1213E19037
:10011E00002EE004F080D41213BF90002CE00444B3
:10012E00B8FF1213D0E490002EF090002FE0FF9055
:10013E00002EE0FEC39F5020900029E0FBA3E0FAC2
:10014E00A3E0F9900002120FFEEEFF741F1213E3EC
:10015E0090002EE004F080D27F0112149C900029B2
:10016E00E0FBA3E0FAA3E0F9900007120FD16401BF
:10017E00600302020D7F401213D090002CE044B8B1
:10018E00FF1213D090002FE090002EF090002EE082
:10019E00FFC394105021900029E0FBA3E0FAA3E0E6
:1001AE00F9900002120FFE8F827583001213ED90EC
:1001BE00002EE004F080D57F401213D090002CE08A
:1001CE000444B8FF1213D090002FE090002EF09050
:1001DE00002EE0FFC3941040030207F0900029E0C8
:1001EE00FBA3E0FAA3E0F9900002120FFE74102FA9
:1001FE00F582E4331213EB90002EE004F080D07FF2
:10020E00401213D090002CE044B8FF1213D090008F
:10021E002FE090002EF090002EE0FFC39410501CA3
:10022E00900029E0FBA3E0FAA3E0F9900002120F80
:10023E00FE1213E190002EE004F080DA7F401213DC
:10024E00D090002CE00444B8FF1213D090002FE0A1
:10025E0090002EF090002EE0FFC394104003020792
:10026E00F0900029E0FBA3E0FAA3E0F9900002125F
:10027E000FFEC3741F1213E490002EE004F080D41E
:10028E00E4FF12149C900029E0FBA3E0FAA3E0F92E
:10029E00900007120FD1640160030203DC1213CA2F
:1002AE0090002CE044B8FF1213D0E490002EF09092
:1002BE00002FE0FF90002EE0FEC39F5036900029E5
:1002CE00E0FBA3E0FAA3E0F9900002120FFE8E828B
:1002DE00758300120FD1FF90002DE0FEF8EF08801D
:1002EE0002C333D8FCF523FF1213F190002EE00465
:1002FE00F080BC1213BF90002CE00444B8FF121320
:10030E00D0E490002EF090002FE0FF90002EE0C37E
:10031E009F5057900029E0FBA3E0FAA3E0F990006C
:10032E0002120FFE90002EE0FF2410F582E433F54A
:10033E0083120FD1FE90002DE0FDF8EE088002C36F
:10034E0033D8FCFE8F82758300120FD1FFC3740861
:10035E009DFDF8EF088002C313D8FC4EF523FF1263
:10036E0013F190002EE004F0809C1213BF90002C2D
:10037E00E0240244B8FF1213D0E490002EF0900057
:10038E002FE0FF90002EE0FEC39F40030205269053
:10039E000029E0FBA3E0FAA3E0F9900002120FFEA1
:1003AE00EE2410F582E433F583120FD1FF90002D69
:1003BE00E0FEC374089EFEF8EF088002C313D8FC5B
:1003CE00F523FF1213F190002EE004F080B012130B
:1003DE00BF90002CE044B8FF1213D0E490002EF032
:1003EE0090002FE0FF90002EE0FEC39F503F900044
:1003FE0029E0FBA3E0FAA3E0F9900002120FFEEE53
:10040E00FFC3740F9FFFE494008F82F583120FD108
:10041E00FF90002DE0FEF8EF088002C333D8FCF504
:10042E0023FF1213F190002EE004F080B31213BFDD
:10043E0090002CE00444B8FF1213D0E490002EF08C
:10044E0090002FE0FF90002EE0FEC39F50649000BE
:10045E0029E0FBA3E0FAA3E0F9900002120FFEEEF2
:10046E00FF7E00C3740F9FFDE49E8D82F583120FF5
:10047E00D1FD90002DE0FCC374089CFCF8ED0880C3
:10048E0002C313D8FCFDC3741F9FFFE49E8F82F539
:10049E0083120FD1FF90002DE0FEF8EF088002C30B
:1004AE0033D8FC4DF523FF1213F190002EE004F02B
:1004BE00808E1213BF90002CE0240244B8FF12135A
:1004CE00D0E490002EF090002FE0FF90002EE0FE82
:1004DE00C39F5044900029E0FBA3E0FAA3E0F990FB
:1004EE000002120FFEEEFFC3741F9FFFE494008FF5
:1004FE0082F583120FD1FF90002DE0FEC374089E8B
:10050E00FEF8EF088002C313D8FCF523FF1213F197
:10051E0090002EE004F080AE7F0112149C90002912
:10052E00E0FBA3E0FAA3E0F9900007120FD16401FB
:10053E0060030206777F401213D090002CE044B87F
:10054E00FF1213D090002FE090002EF090002EE0BE
:10055E00FFC394105036900029E0FBA3E0FAA3E00D
:10056E00F9900002120FFE8F82758300120FD1FFD9
:10057E0090002DE0FEF8EF088002C333D8FCF5237F
:10058E00FF1213F190002EE004F080C07F40121392
:10059E00D090002CE00444B8FF1213D090002FE04E
:1005AE0090002EF090002EE0C3941050579000292A
:1005BE00E0FBA3E0FAA3E0F9900002120FFE900018
:1005CE002EE0FF2410F582E433F583120FD1FE9056
:1005DE00002DE0FDF8EE088002C333D8FCFE8F82BA
:1005EE00758300120FD1FFC374089DFDF8EF0880CC
:1005FE0002C313D8FC4EF523FF1213F190002EE028
:10060E0004F080A07F401213D090002CE02402440E
:10061E00B8FF1213D090002FE090002EF090002E15
:10062E00E0FFC3941040030207BE900029E0FBA335
:10063E00E0FAA3E0F9900002120FFE74102FF5827B
:10064E00E433F583120FD1FF90002DE0FEC3740842
:10065E009EFEF8EF088002C313D8FCF523FF121399
:10066E00F190002EE004F080B47F401213D0900081
:10067E002CE044B8FF1213D090002FE090002EF023
:10068E0090002EE0FFC39410503D900029E0FBA394
:10069E00E0FAA3E0F9900002120FFEC3740F9FFF61
:1006AE00E494008F82F583120FD1FF90002DE0FEAF
:1006BE00F8EF088002C333D8FCF523FF1213F19034
:1006CE00002EE004F080B97F401213D090002CE091
:1006DE000444B8FF1213D090002FE090002EF0903B
:1006EE00002EE0FFC394105062900029E0FBA3E0BF
:1006FE00FAA3E0F9900002120FFE7E00C3740F9F62
:10070E00FDE49E8D82F583120FD1FD90002DE0FC4D
:10071E00C374089CFCF8ED088002C313D8FCFDC31B
:10072E00741F9FFFE49E8F82F583120FD1FF9000FE
:10073E002DE0FEF8EF088002C333D8FC4DF523FF01
:10074E001213F190002EE004F080947F401213D02B
:10075E0090002CE0240244B8FF1213D090002FE03A
:10076E0090002EF090002EE0FFC3941050429000A7
:10077E0029E0FBA3E0FAA3E0F9900002120FFEC3FA
:10078E00741F9FFFE494008F82F583120FD1FF90A8
:10079E00002DE0FEC374089EFEF8EF088002C3131E
:1007AE00D8FCF523FF1213F190002EE004F080B474
:1007BE00E4F523900029E0FBA3E0FAA3E0F9900012
:1007CE0008120FD1F4601B90002E7401F090002ED1
:1007DE00E0FFC39410500B74232FF8E4F6E004F0FE
:0207EE0080EB9E
:0107F00022E6
:10145A00EF4440FF1213D0ED44B8FF1213D0E4FE5C
:0A146A00E4FF1213F10EEEB410F6C9
:011474002255
:10136900AE07EED3943F400874C02EFE7F01800281
:10137900E4FF12149CEE4440FF1213D0AF05EF13A3
:0F1389001313541F44B8FF1213D0E4FF0213F1E3
:10106100020E09E493A3F8E493A34003F68001F28E
:1010710008DFF48029E493A3F85407240CC8C33390
:10108100C4540F4420C8834004F456800146F6DF5F
:10109100E4800B010204081020408090123FE47E9E
:1010A100019360BCA3FF543F30E509541FFEE49354
:1010B100A360010ECF54C025E060A840B8E493A31B
:1010C100FAE493A3F8E493A3C8C582C8CAC583CA46
:1010D100F0A3C8C582C8CAC583CADFE9DEE780BEFE
:01129C000051
:100FB800BB010689828A83E0225002E722BBFE0237
:090FC800E32289828A83E493226A
:100FD100BB010CE58229F582E5833AF583E02250D5
:100FE10006E92582F8E622BBFE06E92582F8E2221F
:0D0FF100E58229F582E5833AF583E4932239
:100FFE00BB010DE58229F582E5833AF583021037B0
:10100E005007E92582F802102EBBFE07E92582F86B
:10101E00021040E58229F582E5833AF583021049F4
:09102E00E6FB08E6FA08E6F922E7
:09103700E0FBA3E0FAA3E0F922BA
:09104000E2FB08E2FA08E2F922E1
:0C104900E493FB740193FA740293F92203
:00000001FF
