:030000000215C81E
:0C15C800787FE4F6D8FD75813B02160F19
:100C3A0060200008000000007C8602010101190101
:100C4A00011982FC0020302CE281E0A8282AEE80DB
:100C5A00FA8B0F0060800106000000000080C0606F
:100C6A006020202020202020206060C0800000001A
:100C7A000000000000000000000000001F3B60C0F0
:100C8A00C0C0C3C30002C3C20000000003FFFC00CF
:100C9A00000000000000000000000000000000004A
:100CAA000706FEFE0080830686800000801F3FF054
:100CBA00E000000000000000000004040404040432
:100CCA0004040707060407070707060607050505BC
:100CDA00050404040404000048006E00483A0E0AA1
:100CEA000A3E084800B6005E334C764D4E76480000
:100CFA00FE0039200079454547480000002836178C
:100D0A007B172F4860200096C0B088804020A0A0A2
:100D1A00A0F8A0A0A020000012130A0A0A003E129E
:100D2A00121212123E000000602000DE0020A0A075
:100D3A00A0A0A0F0A0A0A0A0200000001010130AFC
:100D4A000A06061F060A0A13100000006020002E79
:100D5A000020B0B0B0B0B0F0F0B0B0B0B0A0200099
:100D6A0000202F2F2E2E2E3F3F2E2E2E2F2F2000EB
:100D7A006020007600002060A0A020F8F820A0A043
:100D8A00602000000010120A0A06063F3F06060A03
:100D9A000A1210006020004E0000C0F00000F0901F
:100DAA009090909090F000000001003F2012120AEB
:100DBA00063F02060A121200602000BE000020A0B0
:100DCA00603018A0A0A0A0A0A0A000000002013FCF
:100DDA000000042424243E05040400000138000114
:100DEA002C0C092D0127010008FF0000FF0A22012F
:100DFA00371E56198041AC58CE013A01013B01C158
:100E0A0001C102C100C186C188C183C185C107C1B0
:100E1A00040236000046002817042D41544B0139BC
:010E2A0000C7
:10112900121C06121CA77F05121C84120E63E538D7
:101139006003021235E535F46017E53525E0242210
:10114900F8E6FFE53525E02423F8E6FDD20912107B
:10115900067B007A00792D120840E4F51AE5356519
:101169001A6025E51A25E02423F8E6FDD3943750C3
:1011790017E51A25E02422F8E6FFEDD3940750027B
:101189008001C39209121006051AE51AC394054095
:10119900CC30040EE537D394375007AD37AF36124C
:1011A9001351300305C203121B5C300605C2061237
:1011B90016DD30050EC205E52CD394635005AF2C1E
:1011C9001217DC20B413E534B40107AD2EAF2D128C
:1011D9001B02E4F532F534801920B513E5347007A4
:1011E900AD2EAF2D121B02753201753401800375C6
:1011F90032FF30080BC20812123E30040312196A7A
:10120900300105C201121BC9300205C202121AD2ED
:1012190030000BC20012184D300403121C5920076C
:1012290003021137C207121BE902113712190B12F7
:0512390018AC021134A5
:101C8400AE071FEE600B751B6E151BE51B60F18024
:011C9400F857
:011C9500222C
:101C0600758911758AFF758CDB758BFF758DFFD213
:0C1C16008CD2A9D28ED2ABD2AFD2B922B0
:03000B00021A6076
:101A6000C0E0C0F0C0D075D000C007053A758CDB6F
:101A7000758AFFE53A75F00584E5F07002D201E55C
:101A80003A75F00A84AFF0EF7002D202EF7002D222
:0A1A900000D007D0D0D0F0D0E03233
:03001B00021A9A2C
:101A9A00C0E0C0F0C0D0053BE53B75F03284E5F00C
:101AAA007002D206E53B75F09684E5F07004D20325
:101ABA00D205E53B75F06484E5F07005200402D296
:081ACA0007D0D0D0F0D0E032CB
:10123E00751BFFE535F46070E52E2410FFE433FED8
:10124E00E53525E02423F8E6FDFBD3EF9B7480F80B
:10125E006E98E52E40082410C39DF51C800F2410B7
:10126E00FFE53525E02423F8E6C39FF51CE51CD3E6
:10127E0094035034E52D240AFFE433FEE53525E0D2
:10128E002422F8E6FD7C00C3EF9D7480F86E984032
:10129E0017ED240FFFEC33FED3E52D9FEE6480F89F
:1012AE007480985003021350E4F51DE52E2410FFB0
:1012BE00E433FEE51D25E02423F8E6FDFBD3EF9B8A
:1012CE007480F86E98E52E40082410C39DF51C809E
:1012DE000F2410FFE51D25E02423F8E6C39FF51C1F
:1012EE00E51CD394035045E52D240AFFE433FEE5B7
:1012FE001D25E02422F8E6FD7C00C3EF9D7480F8E6
:10130E006E984028ED240FFFEC33FED3E52D9FEEB3
:10131E006480F87480985014E4F533E51D25E024BC
:10132E0023F8E624F0F52E851D1B800B051DE51D0B
:10133E00640560030212B9851B35E535B4FF0375EC
:02134E00330169
:01135000227A
:10196A00E52E2410FDE433FCE537FBD3ED9B7480B0
:10197A00F86C98E52E40082410C39537FF80082498
:10198A0010FFC3E5379FFFEFD39403502EE52D24B4
:10199A000AFDE433FCE536FB7A00C3ED9B7480F85C
:1019AA006C984017EB240FFDEA33FCE52DD39DEC30
:0B19BA006480F87480985003753803B7
:0119C50022FF
:101BC900E53214600F047017E52DD3940140101508
:101BD9002DD20822E52DC3946F5004052DD2082279
:101AD200E53314601B047027E535F46022E53525F3
:101AE200E02423F8E624F0F52EC394015011800C73
:101AF200E52EC394305005052ED2082275380322F4
:10184D00E4F51BE51B25E02423F8E6FDD3940140C8
:10185D000316803FE51B25E02422F8E6FF12144114
:10186D00D206AF390539EF75F00684742825F0F5E9
:10187D0082E43400F583E0FFE51B25E02422F8A681
:10188D0007E51B25E02423F8766CE51BB40404055D
:0E189D002CD205051BE51BC3940540A7D208FD
:0118AB00221A
:101BE900AF390539EF75F00684742825F0F582E4DC
:0D1BF9003400F583E0F53675376AD204221A
:101C5900E537D394014003153722AD37AF36121457
:061C690041D206C2042274
:100E6300D209C20AE49001B6F0D2B37B017A0179C8
:100E7300067D027F1912165420B503020FFE20B41B
:100E8300147FF4121C8420B4EFC2B39001B6E004C3
:100E93005401F0D2093009E09001B6E01470030266
:100EA3000F51046003020FF97D037F40121B317D54
:100EB300037F51121B31E49001BFF09001BFE0FFAB
:100EC300246EF582E43400F583E0F4FE74B72FF565
:100ED30082E43401F583EEF09001BFE004F0E0B466
:100EE30008D97B017A0179B77D037F41121A21E486
:100EF3009001BFF09001BFE0FF24B6F582E4340017
:100F0300F583E0F4FE74B72FF582E43401F583EE44
:100F1300F09001BFE004F0E0B408D97B017A0179D5
:100F2300B77D037F49121A217D287F40121B027D62
:100F3300287F51121B027B017A0079FE7D057F41D8
:100F4300121A217B017A0079007D05020FF47D05D9
:100F53007F40121B317D057F51121B31E49001BF8D
:100F6300F09001BFE0FF24FEF582E43400F583E056
:100F7300F4FE74B72FF582E43401F583EEF09001AB
:100F8300BFE004F0E0B408D97B017A0179B77D05AD
:100F93007F41121A21E49001BFF09001BFE0FF24CA
:100FA30000F582E43400F583E0F4FE74B72FF58294
:100FB300E43401F583EEF09001BFE004F0E0B408FF
:100FC300D97B017A0179B77D057F49121A217D18F2
:100FD3007F40121B027D187F51121B027B017A0096
:100FE300796E7D037F41121A217B017A0079B67DE8
:100FF300037F49121A21C209020E7B12190B7FF4D7
:03100300021C8448
:1018AC007B017A0079967D027F141219C67B017A2E
:1018BC000079DE7D027F261219C67B017A00792E13
:1018CC007D047F141219C67B017A0079767D047F22
:1018DC00261219C67B017A00794E7D047F401219BD
:1018EC00C67B017A0079BE7D047F511219C67FB880
:0F18FC00121C8420B5FD7F2C121C8420B5F52210
:100E2B004801861E3E7F7E7E7F3E1E6028018E1C03
:100E3B0024223C00043E002032322C002A2A34109B
:100E4B0018143E002E2A3218342A3A02221A06149B
:070E5B002C2A340C34323C58
:101C6F00C290D291E4F5A0D29200E5A05480F51D68
:041C7F00C29270F0AD
:011C8300223E
:101C9600EF146008047009C293D29422D293C294BE
:011CA600221B
:101BA7009001B9E0FBA3E0FAA3E0F9121515444050
:011BB700FF2E
:101BB800121C6FC290C29100D292008FA000C292F4
:011BC80022FA
:101B82009001C0E0FBA3E475F00112155BA9F0FA25
:041B9200121515FF14
:101B9600121C6FD290C29100D292008FA000C29206
:011BA600221C
:101C2200121C6F75A0FFC292D290D291D292000084
:0B1C32000085A01C000000C292AF1C47
:011C3D002284
:10190B00E4FF121C96E4F51BE51B24B8FF121BB871
:10191B007F40121BB8E4F51CE4FF121B96051CE577
:10192B001CC3944040F2051BE51BC3940840D97FB0
:10193B0001121C96E4F51BE51B24B8FF121BB87FA4
:10194B0040121BB8E4F51CE4FF121B96051CE51CAA
:0E195B00C3944040F2051BE51BC3940840D91D
:01196900225B
:101CA700121C6F7FC0121BB87F3F121BB802190BA3
:051006009001B6EFF0BF
:10100B00ED131313541FF508ED5407F509EFD394A3
:10101B003F400B7F01121C96E024C0F08005E4FFDB
:10102B00121C96E509702D9001B6E04440FF121B8F
:10103B00B8E50844B8FF121BB87F0F121B96751B3F
:10104B00017F09121B96051BE51BC3940F40F27F12
:10105B000F021B969001B6E04440FF121BB8E50847
:10106B0044B8FF121BB830090BE0FFAB09AD0812F7
:10107B0017608045AF09A807740F088002C333D8E7
:10108B00FCF50AFF121B96751B01AF09A807740923
:10109B00088002C333D8FCF50AFF121B96051BE52B
:1010AB001BC3940F40E4AF09A807740F088002C359
:1010BB0033D8FCF50AFF121B969001B6E04440FFB3
:1010CB00121BB8E5080444B8FF121BB8C37408958B
:1010DB0009FFF8740F088002C313D8FCF50AFF123E
:1010EB001B96751B01C374089509FFF874090880DA
:1010FB0002C313D8FCF50AFF121B96051BE51BC395
:10110B00940F40E1C374089509FFF8740F0880022F
:0D111B00C313D8FCF50AFF121B96E4F50A79
:0111280022A4
:051351009001B6EFF071
:10135600E4F51CED131313541FF508ED5407F509B6
:10136600EFD3943F400B7F01121C96E024C0F0801F
:1013760005E4FF121C96ED5407700B9001B6E0FFD2
:10138600ED04FD121B02E509702D9001B6E0444004
:10139600FF121BB8E50844B8FF121BB87F0F121BDB
:1013A60096751B017F09121B96051BE51BC3940F3F
:1013B60040F27F0F021B969001B6E04440FF121BDD
:1013C600B8E50844B8FF121BB8E4F51BAF1C051CB2
:1013D600EF30E011AF09A807740F088002C333D8B5
:1013E600FCF50A800FAF09A807740E088002C33304
:1013F600D8FCF50AAF0A121B96051BE51BC3941011
:1014060040CA9001B6E04440FF121BB8E508044408
:10141600B8FF121BB8E4F51BC374089509FFF874EE
:101426000F088002C313D8FCF50AFF121B96051B92
:0A143600E51BC3941040E1E4F50A41
:011440002289
:0B0840009001B6EBF0A3EAF0A3E9F092
:10084B00121515FFF51C90000112152EFE13131334
:10085B00541FF508EE5407F509EFD3942F401E9063
:10086B0001B6E0FBA3E0FAA3E0F9121515C394401F
:10087B00500B9001BDE509F0AD0802001ED3E51C3D
:10088B00648094BF400D7F01121C9674C0251CF52B
:10089B001C8005E4FF121C969001B6E0FBA3E0FA66
:1008AB00A3E0F990000112152E145407700B1215CA
:1008BB0015FFE50814FD121C3EE50960030209DE75
:1008CB009001B6E0FBA3E0FAA3E0F9900007121544
:1008DB002E6401707AE51C4440FF121BB8E50844F6
:1008EB00B8FF121BB8E4F51B9001B6E0FBA3E0FACE
:1008FB00A3E0F9900002121571851B82758300121B
:10090B00152EFF121B96051BE51BC3941040D9E552
:10091B001C4440FF121BB8E5080444B8FF121BB877
:10092B00E4F51B9001B6E0FBA3E0FAA3E0F990001D
:10093B00021215717410251BF582E433F583121521
:10094B002EFF121B96051BE51BC3941040D522E509
:10095B001C4440FF121BB8E50844B8FF121BB8E457
:10096B00F51B9001B6E0FBA3E0FAA3E0F9900002BF
:10097B00121571C3740F951BFFE494008F82F583DE
:10098B0012152EFF121B96051BE51BC3941040D2AC
:10099B00E51C4440FF121BB8E5080444B8FF121BCA
:1009AB00B8E4F51B9001B6E0FBA3E0FAA3E0F990E5
:1009BB000002121571C3741F951BFFE494008F8204
:1009CB00F58312152EFF121B96051BE51BC3941006
:1009DB0040D2229001B6E0FBA3E0FAA3E0F990002D
:1009EB000712152E64016003020AFBE51C4440FF4D
:1009FB00121BB8E50844B8FF121BB8E4F51B9001B5
:100A0B00B6E0FBA3E0FAA3E0F990000212157185A2
:100A1B001B8275830012152EFFAE09A806088002F3
:100A2B00C333D8FCF50AFF121B96051BE51BC394B9
:100A3B001040CBE51C4440FF121BB8E5080444B83A
:100A4B00FF121BB8E4F51B9001B6E0FBA3E0FAA381
:100A5B00E0F99000021215717410251BF582E43336
:100A6B00F58312152EFFAE09A806088002C333D8F2
:100A7B00FCFF851B8275830012152EFEC37408952F
:100A8B0009FDF8EE088002C313D8FC4FF50AFF12DC
:100A9B001B96051BE51BC3941040ACE51C4440FFA3
:100AAB00121BB8E508240244B8FF121BB8E4F51B6F
:100ABB009001B6E0FBA3E0FAA3E0F9900002121557
:100ACB00717410251BF582E433F58312152EFFC3C9
:100ADB0074089509FEF8EF088002C313D8FCF50AD9
:100AEB00FF121B96051BE51BC3941040C3020C1190
:100AFB00E51C4440FF121BB8E50844B8FF121BB8B5
:100B0B00E4F51B9001B6E0FBA3E0FAA3E0F990003B
:100B1B0002121571C3740F951BFFE494008F82F5BD
:100B2B008312152EFFAE09A806088002C333D8FC2A
:100B3B00F50AFF121B96051BE51BC3941040C4E579
:100B4B001C4440FF121BB8E5080444B8FF121BB845
:100B5B00E4F51B9001B6E0FBA3E0FAA3E0F99000EB
:100B6B0002121571AF1B7E00C3740F9FFDE49E8DA7
:100B7B0082F58312152EFDC374089509FCF8ED0858
:100B8B008002C313D8FCFDC3741F9FFFE49E8F82AA
:100B9B00F58312152EFFAE09A806088002C333D8C1
:100BAB00FC4DF50AFF121B96051BE51BC394104069
:100BBB00A2E51C4440FF121BB8E508240244B8FF11
:100BCB00121BB8E4F51B9001B6E0FBA3E0FAA3E01F
:100BDB00F9900002121571C3741F951BFFE494006A
:100BEB008F82F58312152EFFC374089509FEF8EF5B
:100BFB00088002C313D8FCF50AFF121B96051BE5F0
:100C0B001BC3941040C0E4F50A9001B6E0FBA3E0CF
:100C1B00FAA3E0F990000812152EF46011751B0170
:0E0C2B00740A251BF8E4F6051BE51BB410F255
:010C39002298
:02144100AE07F4
:10144300ED131313541FF508ED5407FFC374089FDE
:10145300F509EED3943F400B7F01121C9674C02E06
:10146300FE8005E4FF121C96E5097042EE4440FF3E
:10147300121BB8E50844B8FF121BB8E4F51CE4FFDF
:10148300121B96051CE51CC3941040F2EE4440FF6A
:10149300121BB8E5080444B8FF121BB8E4F51CE4BA
:1014A300FF121B96051CE51CC3941040F222EE4468
:1014B30040FF121BB8E50844B8FF121BB8E4F51C43
:1014C300E4FF121B96051CE51CC3941040F2EE4486
:1014D30040FF121BB8E5080444B8FF121BB8E4F53B
:1014E3001CE4FF121B96051CE51CC3941040F2EE8E
:1014F3004440FF121BB8E508240244B8FF121BB88E
:10150300E4F51CE4FF121B96051CE51CC394104074
:01151300F2E5
:0115140022B4
:1016DD00E4FF121C96E4F51BE51B4440FF121BB8FA
:1016ED007FB8121BB87F01121B96051BE51BC39417
:1016FD004040E5E4F51B7F40121BB8E51B44B8FFE5
:10170D00121BB87FFF121B96051BE51BC3940840E7
:10171D00E57F01121C96E4F51BE51B4440FF121BEF
:10172D00B87FB8121BB87F01121B96051BE51BC3B2
:10173D00944040E5E4F51B7F7F121BB8E51B44B8D0
:10174D00FF121BB87FFF121B96051BE51BC39408E8
:02175D0040E565
:01175F002267
:02176000AE07D2
:10176200121C22121C22A803740F088002C333D851
:10177200FC4FF50A7C01121C22121C22C374089B26
:10178200FAF874FF088002C313D8FC5FFFA8037441
:1017920009088002C333D8FC4FFF740A2CF8A6074D
:1017A2000CECB40FD1121C22121C22AC03A804743C
:1017B2000F088002C333D8FC4FF519EE4440FF12E4
:1017C2001BB8ED44B8FF121BB8E4FC740A2CF8E60F
:0917D200FF121B960CECB410F29E
:0117DB0022EB
:10001E009001BCEDF09001B9EBF0A3EAF0A3E9F08A
:10002E00121515FFC3743F9F9001BFF09001BDE004
:10003E0060030202DD9001B9E0FBA3E0FAA3E0F950
:10004E0090000712152E640160030200F1EF444088
:10005E00FF121BB89001BCE044B8FF121BB8E4902D
:10006E0001BEF09001BFE0FF9001BEE0FEC39F50C5
:10007E00259001B9E0FBA3E0FAA3E0F9900002128B
:10008E0015718E8275830012152EFF121B9690012C
:10009E00BEE004F080CD121BA79001BCE00444B872
:1000AE00FF121BB8E49001BEF09001BFE0FF90017B
:1000BE00BEE0FEC39F400302018E9001B9E0FBA398
:1000CE00E0FAA3E0F9900002121571EE2410F58209
:1000DE00E433F58312152EFF121B969001BEE00439
:1000EE00F080C6121BA79001BCE044B8FF121BB8EB
:1000FE00E49001BEF09001BFE0FF9001BEE0FEC3B0
:10010E009F502E9001B9E0FBA3E0FAA3E0F9900016
:10011E0002121571EEFFC3740F9FFFE494008F82DD
:10012E00F58312152EFF121B969001BEE004F0808F
:10013E00C4121BA79001BCE00444B8FF121BB8E424
:10014E009001BEF09001BFE0FF9001BEE0FEC39FA4
:10015E00502E9001B9E0FBA3E0FAA3E0F990000263
:10016E00121571EEFFC3741F9FFFE494008F82F58A
:10017E008312152EFF121B969001BEE004F080C470
:10018E007F01121C969001B9E0FBA3E0FAA3E0F9FF
:10019E0090000712152E6401600302023F7F401289
:1001AE001BB89001BCE044B8FF121BB89001BFE031
:1001BE009001BEF09001BEE0FFC394105025900157
:1001CE00B9E0FBA3E0FAA3E0F99000021215718FDB
:1001DE008275830012152EFF121B969001BEE0044D
:1001EE00F080D17F40121BB89001BCE00444B8FFF0
:1001FE00121BB89001BFE09001BEF09001BEE0FF6F
:10020E00C39410400302083F9001B9E0FBA3E0FA4B
:10021E00A3E0F990000212157174102FF582E433E9
:10022E00F58312152EFF121B969001BEE004F0808E
:10023E00CA7F40121BB89001BCE044B8FF121BB835
:10024E009001BFE09001BEF09001BEE0FFC394109C
:10025E00502C9001B9E0FBA3E0FAA3E0F990000264
:10026E00121571C3740F9FFFE494008F82F58312F1
:10027E00152EFF121B969001BEE004F080CA7F403F
:10028E00121BB89001BCE00444B8FF121BB89001D9
:10029E00BFE09001BEF09001BEE0FFC3941040039A
:1002AE0002083F9001B9E0FBA3E0FAA3E0F9900049
:1002BE0002121571C3741F9FFFE494008F82F583A1
:1002CE0012152EFF121B969001BEE004F080C7E4BB
:1002DE00FF121C969001B9E0FBA3E0FAA3E0F9909F
:1002EE00000712152E6401600302042B121BB2903C
:1002FE0001BCE044B8FF121BB8E49001BEF09001BF
:10030E00BFE0FF9001BEE0FEC39F50369001B9E002
:10031E00FBA3E0FAA3E0F99000021215718E82752C
:10032E00830012152EFF9001BDE0FEF8EF0880024B
:10033E00C333D8FCF50AFF121B969001BEE004F001
:10034E0080BC121BA79001BCE00444B8FF121BB87E
:10035E00E49001BEF09001BFE0FF9001BEE0C39FAC
:10036E0050579001B9E0FBA3E0FAA3E0F990000228
:10037E001215719001BEE0FF2410F582E433F5836F
:10038E0012152EFE9001BDE0FDF8EE088002C3337B
:10039E00D8FCFE8F8275830012152EFFC374089D44
:1003AE00FDF8EF088002C313D8FC4EF50AFF121BAE
:1003BE00969001BEE004F0809C121BA79001BCE059
:1003CE00240244B8FF121BB8E49001BEF09001BFA6
:1003DE00E0FF9001BEE0FEC39F4003020575900151
:1003EE00B9E0FBA3E0FAA3E0F9900002121571EE5A
:1003FE002410F582E433F58312152EFF9001BDE033
:10040E00FEC374089EFEF8EF088002C313D8FCF5F5
:10041E000AFF121B969001BEE004F080B0121BA7DB
:10042E009001BCE044B8FF121BB8E49001BEF090FE
:10043E0001BFE0FF9001BEE0FEC39F503F9001B9A7
:10044E00E0FBA3E0FAA3E0F9900002121571EEFFB3
:10045E00C3740F9FFFE494008F82F58312152EFF55
:10046E009001BDE0FEF8EF088002C333D8FCF50A18
:10047E00FF121B969001BEE004F080B3121BA790F2
:10048E0001BCE00444B8FF121BB8E49001BEF0902A
:10049E0001BFE0FF9001BEE0FEC39F50649001B922
:1004AE00E0FBA3E0FAA3E0F9900002121571EEFF53
:1004BE007E00C3740F9FFDE49E8D82F58312152E70
:1004CE00FD9001BDE0FCC374089CFCF8ED088002B1
:1004DE00C313D8FCFDC3741F9FFFE49E8F82F58368
:1004EE0012152EFF9001BDE0FEF8EF088002C33317
:1004FE00D8FC4DF50AFF121B969001BEE004F08069
:10050E008E121BA79001BCE0240244B8FF121BB848
:10051E00E49001BEF09001BFE0FF9001BEE0FEC38B
:10052E009F50449001B9E0FBA3E0FAA3E0F99000DC
:10053E0002121571EEFFC3741F9FFFE494008F82A9
:10054E00F58312152EFF9001BDE0FEC374089EFECA
:10055E00F8EF088002C313D8FCF50AFF121B969021
:10056E0001BEE004F080AE7F01121C969001B9E04E
:10057E00FBA3E0FAA3E0F990000712152E640160C8
:10058E00030206C67F40121BB89001BCE044B8FFC0
:10059E00121BB89001BFE09001BEF09001BEE0FFCB
:1005AE00C3941050369001B9E0FBA3E0FAA3E0F932
:1005BE009000021215718F8275830012152EFF9016
:1005CE0001BDE0FEF8EF088002C333D8FCF50AFF48
:1005DE00121B969001BEE004F080C07F40121BB843
:1005EE009001BCE00444B8FF121BB89001BFE0902C
:1005FE0001BEF09001BEE0C3941050579001B9E0D7
:10060E00FBA3E0FAA3E0F99000021215719001BE6F
:10061E00E0FF2410F582E433F58312152EFE9001CF
:10062E00BDE0FDF8EE088002C333D8FCFE8F827564
:10063E00830012152EFFC374089DFDF8EF0880028B
:10064E00C313D8FC4EF50AFF121B969001BEE004B0
:10065E00F080A07F40121BB89001BCE0240244B889
:10066E00FF121BB89001BFE09001BEF09001BEE0FA
:10067E00FFC39410400302080D9001B9E0FBA3E004
:10068E00FAA3E0F990000212157174102FF582E4AE
:10069E0033F58312152EFF9001BDE0FEC374089E44
:1006AE00FEF8EF088002C313D8FCF50AFF121B9662
:1006BE009001BEE004F080B47F40121BB89001BCE4
:1006CE00E044B8FF121BB89001BFE09001BEF0905D
:1006DE0001BEE0FFC39410503D9001B9E0FBA3E0D2
:1006EE00FAA3E0F9900002121571C3740F9FFFE494
:1006FE0094008F82F58312152EFF9001BDE0FEF857
:10070E00EF088002C333D8FCF50AFF121B96900146
:10071E00BEE004F080B97F40121BB89001BCE0042B
:10072E0044B8FF121BB89001BFE09001BEF09001DB
:10073E00BEE0FFC3941050629001B9E0FBA3E0FA53
:10074E00A3E0F99000021215717E00C3740F9FFD95
:10075E00E49E8D82F58312152EFD9001BDE0FCC343
:10076E0074089CFCF8ED088002C313D8FCFDC3741A
:10077E001F9FFFE49E8F82F58312152EFF9001BD01
:10078E00E0FEF8EF088002C333D8FC4DF50AFF12E5
:10079E001B969001BEE004F080947F40121BB8902F
:1007AE0001BCE0240244B8FF121BB89001BFE090D8
:1007BE0001BEF09001BEE0FFC3941050429001B90B
:1007CE00E0FBA3E0FAA3E0F9900002121571C374E6
:1007DE001F9FFFE494008F82F58312152EFF900168
:1007EE00BDE0FEC374089EFEF8EF088002C313D866
:1007FE00FCF50AFF121B969001BEE004F080B4E4F3
:10080E00F50A9001B9E0FBA3E0FAA3E0F990000825
:10081E0012152EF4601B9001BE7401F09001BEE023
:10082E00FFC39410500B740A2FF8E4F6E004F08026
:01083E00EBCE
:01083F002296
:101C3E00EF4440FF121BB8ED44B8FF121BB8E4FE90
:0A1C4E00E4FF121B960EEEB410F630
:011C58002269
:101B0200AE07EED3943F400874C02EFE7F018002E0
:101B1200E4FF121C96EE4440FF121BB8AF05EF1310
:0F1B22001313541F44B8FF121BB8E4FF021B96A5
:101B5C007F01121C967F66121BB87FB9121BB8E46A
:101B6C00FE74862EF582E43401F583E0FF121B9699
:051B7C000EEEB408ECC0
:011B81002241
:0217DC00AE0756
:1017DE007F01121C96EE75F00A84ADF07F76121B17
:1017EE00B87FB9121BB8E4FCED25E025E0248EF598
:1017FE0082E43401F583E5822CF582E43583F583AA
:10180E00E0FF121B960CECB404DEEE75F00A84FDBC
:10181E007F6E121BB87FB9121BB8E4FCED25E025D4
:10182E00E0248EF582E43401F583E5822CF582E422
:0E183E003583F583E0FF121B960CECB404DE3C
:01184C002279
:0D1A21009001C0EBF0A3EAF0A3E9F0AE07DE
:101A2E00EED3943F400B7F01121C9674C02EFE80A5
:101A3E0005E4FF121C96EE4440FF121BB8ED44B8AD
:101A4E00FF121BB8E4FE9001C0121B850EEEB40807
:011A5E00F592
:011A5F002264
:0D19C6009001B6EBF0A3EAF0A3E9F0AE0744
:1019D300EED3943F400B7F01121C9674C02EFE8001
:1019E30005E4FF121C96EE4440FF121BB8ED44B809
:1019F300FF121BB8E4FC9001B6121B850CECB4106B
:101A0300F5EE4440FF121BB8ED0444B8FF121BB8B7
:0D1A1300E4FC9001B6121B850CECB410F53C
:011A200022A3
:0D1654009001C0EBF0A3EAF0A3E9F0AE07AF
:10166100EED3943F400B7F01121C9674C02EFE8076
:1016710005E4FF121C96EE4440FF121BB8ED44B87E
:10168100FF121BB8E4FC121B820CECB420F8EE44F0
:1016910040FF121BB8ED0444B8FF121BB8E4FC1262
:1016A1001B820CECB420F8EE4440FF121BB8ED2471
:1016B1000244B8FF121BB8E4FC121B820CECB420EC
:1016C100F8EE4440FF121BB8ED240344B8FF121B8F
:0B16D100B8E4FC121B820CECB420F803
:0116DC0022EB
:021B3100AE07FD
:101B3300EED3943F400B7F01121C9674C02EFE809F
:101B430005E4FF121C96EE4440FF121BB8ED44B8A7
:091B5300FF121BB87FFF021B9674
:1015D400021129E493A3F8E493A34003F68001F2F3
:1015E40008DFF48029E493A3F85407240CC8C33318
:1015F400C4540F4420C8834004F456800146F6DFE7
:10160400E4800B0102040810204080900C3AE47E30
:10161400019360BCA3FF543F30E509541FFEE493DB
:10162400A360010ECF54C025E060A840B8E493A3A2
:10163400FAE493A3F8E493A3C8C582C8CAC583CACD
:10164400F0A3C8C582C8CAC583CADFE9DEE780BE85
:010E6200008F
:10151500BB010689828A83E0225002E722BBFE02D4
:09152500E32289828A83E4932207
:10152E00BB010CE58229F582E5833AF583E0225072
:10153E0006E92582F8E622BBFE06E92582F8E222BC
:0D154E00E58229F582E5833AF583E49322D6
:10155B00A3F8E0C5F025F0F0E58215827002158343
:06156B00E0C838F0E822A0
:10157100BB010DE58229F582E5833AF5830215AABF
:101581005007E92582F80215A1BBFE07E92582F87B
:101591000215B3E58229F582E5833AF5830215BC8C
:0915A100E6FB08E6FA08E6F9226F
:0915AA00E0FBA3E0FAA3E0F92242
:0915B300E2FB08E2FA08E2F92269
:0C15BC00E493FB740193FA740293F9228B
:00000001FF
