:0300000002031BDD
:0C031B00787FE4F6D8FD7581450203628E
:10046300202008008000000080C0C0FEFFFFBFAF57
:100473002F0F000007070EFFFF3F3FFF0707000096
:1004830000000005280000000008022D0000022FD4
:02049300000067
:10051100758901758A18758CFCC28DD28CD2A9D2CD
:04052100AFC2B9228A
:030003000204965E
:10049600C0E0C0D00530E5307002052F758A1875AA
:1004A6008CFCC3E53094F4E52F940140020528D076
:0404B600D0D0E03290
:01056D00226B
:10042D0012051112055D7F057E00120539052EE5B9
:10043D002E7002052DAB2AAA2BA92CAD29AF28129F
:10044D000006D3E52E9414E52D940040E0E4F52D3F
:06045D00F52E052880D7F2
:10053900EF1FAA0670011E4A60087D6E1DED60F06E
:0205490080FA36
:01054B00228D
:10052500C290D291E4F5A0D29200E5A05480FFC21A
:030535009270F1D0
:0105380022A0
:10054C00EF146008047009C293D29422D293C2941F
:01055C00227C
:0D04BA004440FF1204C7AF050DEF44B8FF2A
:1004C700AE07120525C290C29100D292008EA000FD
:0304D700C29222AC
:0B04DA0014F91204F8FFC374FF9FFF29
:1004E500AE07120525D290C29100D292008EA000CF
:0304F500C292228E
:1003A700E4FF12054CE4FCEC24B8FF1204C77F40BD
:1003B7001204C7E4FDE4FF1204E50DBD40F70CBCD1
:1003C70008E57F0112054CE4FCEC24B8FF1204C7D2
:1003D7007F401204C7E4FDE4FF1204E50DBD40F7BA
:0403E7000CBC08E55D
:0103EB0022EF
:10055D001205257FC01204C77F3F1204C70203A7EF
:080138008F3A8B3B8A3C893DA4
:10014000E53AD3943F400D7F0112054C74C0253A27
:10015000F53A8005E4FF12054CE53A1204BAED20A9
:10016000E71DE4FCAB3B053DE53DAA3C7002053CC8
:1001700014F91204F8FF1204E50CBC08E78015E43A
:10018000FCAB3B053DE53DAA3C7002053C1204DAA0
:100190000CBC08EDE53A4440FF1204C7ED44B8FF3B
:1001A0001204C7ED20E71CE4FCAB3B053DE53DAA8E
:1001B0003C7002053C14F91204F8FF1204E50CBC73
:1001C00008E722E4FCAB3B053DE53DAA3C70020597
:0801D0003C1204DA0CBC08ED3E
:0101D8002204
:0801D9008F3E8B3F8A408941F3
:1001E100E53ED3943F400D7F0112054C74C0253E7E
:1001F100F53E8005E4FF12054CE53E1204BAED2000
:10020100E71DE4FCAB3F0541E541AA407002054012
:1002110014F91204F8FF1204E50CBC10E78015E490
:10022100FCAB3F0541E541AA40700205401204DAEA
:100231000CBC10EDE53E4440FF1204C7ED44B8FF8D
:100241001204C7ED20E71CE4FCAB3F0541E541AAE0
:10025100407002054014F91204F8FF1204E50CBCC9
:1002610010E722E4FCAB3F0541E541AA40700205DD
:08027100401204DA0CBC10ED90
:010279002262
:08027A008F428B438A44894541
:10028200E542D3943F400D7F0112054C74C02542D4
:10029200F5428005E4FF12054CE5421204BAED2056
:1002A200E71DE4FCAB430545E545AA44700205445D
:1002B20014F91204F8FF1204E50CBC08E78015E4F7
:1002C200FCAB430545E545AA44700205441204DA35
:1002D2000CBC08EDE5424440FF1204C7ED44B8FFF0
:1002E2001204C7ED20E71CE4FCAB430545E545AA33
:1002F200447002054414F91204F8FF1204E50CBC20
:1003020008E722E4FCAB430545E545AA4470020533
:08031200441204DA0CBC08EDF2
:01031A0022C0
:080006008F318B328A338934FB
:10000E00753600753700753800E531D3942F400AE8
:10001E00E531943F50047F0180027F008F39E53136
:10002E00C3943F5007E4FF12054C8015E531C3948D
:10003E007040030201377F0112054C74C02531F563
:10004E0031E5314440FF1204C7ED44B8FF1204C736
:10005E00E539701CFCAB320534E534AA3370020569
:10006E003314F91204F8FF1204E50CBC10E78045B6
:10007E00C3743F9531F5358532368533378534383F
:10008E00E4FCECC395355018AB320534E534AA3395
:10009E007002053314F91204F8FF1204E50C80E225
:1000AE00E4FCC374089535FFECC39F5008E4FF12BF
:1000BE0004E50C80EDE5314440FF1204C7ED044425
:1000CE00B8FF1204C7E539701CFCAB320534E534B9
:1000DE00AA337002053314F91204F8FF1204E50C6A
:1000EE00BC10E78044E5382408F9E435378536320C
:1000FE00F5338934E4FCECC395355018AB32053436
:10010E00E534AA337002053314F91204F8FF120411
:10011E00E50C80E2E4FCC374089535FFECC39F50F8
:09012E0008E4FF1204E50C80ED69
:0101370022A5
:0203EC00AC075C
:1003EE00ECD3943F400B7F0112054C74C02CFC8063
:1003FE0005E4FF12054CEC1204BAE4FBE4FF120410
:10040E00E50BBB10F7EC4440FF1204C7ED44B8FFF8
:0E041E001204C7E4FBE4FF1204E50BBB10F769
:01042C0022AD
:1003270002042DE493A3F8E493A34003F68001F2BB
:1003370008DFF48029E493A3F85407240CC8C333D7
:10034700C4540F4420C8834004F456800146F6DFA6
:10035700E4800B0102040810204080900463E47ECF
:10036700019360BCA3FF543F30E509541FFEE4939B
:10037700A360010ECF54C025E060A840B8E493A362
:10038700FAE493A3F8E493A3C8C582C8CAC583CA8D
:10039700F0A3C8C582C8CAC583CADFE9DEE780BE45
:010495000066
:1004F800BB010689828A83E0225002E722BBFE0202
:09050800E32289828A83E4932234
:00000001FF
