:0300000002079F55
:0C079F00787FE4F6D8FD75817C0207E647
:1008A60020200A008000000080C0C0FEFFFFBFAF0E
:1008B6002F0F000007070EFFFF3F3FFF070700004F
:1008C600000000072A000800000A01FF0208583746
:1008D6000231000001340001350001370001360104
:0308E60001330AD1
:100A6500758901758AFF758CDBD28CD2A9D2AFC28C
:020A7500B922A4
:03000B0002082BBD
:10082B00C0E0C0D075D000C00005340535758CDB39
:10083B00758AFFE534C39408403AE52F14600E0423
:10084B007014E52AD39400400D152A8009E52AC3BC
:10085B00946F5002052AE5301460140470130537A9
:10086B00152BE537B40A0A75370075300180020580
:0B087B002B753400E535C395334019A0
:10088600757300E573C39536500CE57325E02409AE
:09089600F816057380ED753500BC
:07089F00D000D0D0D0E03200
:0100030022DA
:10092000120A65120A887F057E00120A52AB2CAAB1
:100930002DA92E852F6E85306FAD2BAF2A12000E9C
:1009400020B411E52FB40107AD2BAF2A120440E407
:10095000F52F80D920B5D6E52F7007AD2BAF2A1221
:070960000440752F0180C661
:100A5200EF1FAA0670011E4A60087D6E1DED60F050
:020A620080FA18
:010A6400226F
:1008E90010380000000000000000000000000000B7
:1008F9000000104800000000000000000000000097
:100909000000000010580000000000000000000076
:06091900000000000000D8
:100A3E00C290D291E4F5A0D29200E5A05480FFC2FC
:030A4E009270F1B2
:010A51002282
:100A7700EF146008047009C293D29422D293C294EF
:010A8700224C
:0E0A1D00E5694440FF120A2BE5700444B8FF5F
:100A2B00AE07120A3EC290C29100D292008EA00075
:030A3B00C2922242
:1009F200ECFF740FC39FFFE49400AB6BAA6CA96D6C
:080A02008F82F583120980FFC9
:100A0A00AE07120A3ED290C29100D292008EA00086
:030A1A00C2922263
:1009AD00E4FF120A77E4FCEC24B8FF120A2B7F4017
:1009BD00120A2BE4FDE4FF120A0A0DBD40F70CBC30
:1009CD0008E57F01120A77E4FCEC24B8FF120A2B2C
:1009DD007F40120A2BE4FDE4FF120A0A0DBD40F719
:0409ED000CBC08E551
:0109F10022E3
:100A8800120A3E7FC0120A2B7F3F120A2B0209ADC1
:080617008F748B758A768977D8
:10061F00E574D3943F400D7F01120A7774C025749F
:10062F00F5748005E4FF120A77E5744440FF120A5F
:10063F002BAF050DEF44B8FF120A2BED20E71DE499
:10064F00FCAB750577E577AA767002057614F9127B
:10065F000967FF120A0A0CBC08E78020E4FCAB759F
:10066F000577E577AA767002057614F9120967FF08
:10067F00C374FF9FFF120A0A0CBC08E2E5744440E2
:10068F00FF120A2BED44B8FF120A2BED20E71CE4F2
:10069F00FCAB750577E577AA767002057614F9122B
:1006AF000967FF120A0A0CBC08E722E4FCAB7505C8
:1006BF0077E577AA767002057614F9120967FFC3FA
:0B06CF0074FF9FFF120A0A0CBC08E237
:0106DA0022FD
:0806DB008F788B798A7A897B04
:1006E300E578D3943F400D7F01120A7774C02578D3
:1006F300F5788005E4FF120A77E5784440FF120A93
:100703002BAF050DEF44B8FF120A2BED20E71DE4D4
:10071300FCAB79057BE57BAA7A7002057A14F912A2
:100723000967FF120A0A0CBC10E78020E4FCAB79CE
:10073300057BE57BAA7A7002057A14F9120967FF33
:10074300C374FF9FFF120A0A0CBC10E2E578444011
:10075300FF120A2BED44B8FF120A2BED20E71CE42D
:10076300FCAB79057BE57BAA7A7002057A14F91252
:100773000967FF120A0A0CBC10E722E4FCAB7905F7
:100783007BE57BAA7A7002057A14F9120967FFC325
:0B07930074FF9FFF120A0A0CBC10E26A
:01079E002238
:02053000AB0717
:10053200ED131313541FFAED5407F57C79FFEBD337
:10054200943F400B7F01120A7774C02BFB8011BBD2
:100552003F097F01120A77E4FB8005E4FF120A7764
:10056200E57C701BEB4440FF120A2BEA44B8FF12F1
:100572000A2BE4FCAF01120A0A0CBC10F78079E4E2
:10058200FCAF7CA807E9088002C333D8FCFF7438AB
:100592002CF8E64FF6C37408957CFFF8E908800250
:1005A200C313D8FCFF74482CF8A6070CBC10D2EB7E
:1005B2004440FF120A2BEA44B8FF120A2BE4FC74EF
:1005C200382CF8E6FF120A0A0CBC10F3EB4440FF89
:1005D200120A2BEA120A27E4FC74482CF8E6FF12EE
:1005E2000A0A0CBC10F3E4FC74382CF8E4F67448E4
:1005F2002CF8E4F60CBC10F0ED1454077016EB4422
:1006020040FF120A2BEA120A27E4FCE4FF120A0A4C
:040612000CBC10F715
:0106160022C1
:0A000E008F698D6A8B6B8A6C896D17
:10001800E56A131313541FF570E56A5407F571E484
:10002800F572E569D3942F4016E569943F5010E5C1
:100038006E1460080470087572018003757202E519
:1000480069B43F0FE56EB4010A7F01120A77E4F53F
:10005800698039E569B42F0DE56E7009FF120A77DA
:1000680075692F8027E569D3943F40097F01120AFB
:100078007774C0800CE572B4010D7F01120A7774A1
:10008800C12569F5698005E4FF120A77E571600307
:100098000201B5E57214604114605C240260030239
:1000A800012DE5694440FF120A2BE57044B8FF12A0
:1000B8000A2BE56EB40117E4FCAB6BAA6CA96D8C36
:1000C80082758300120A060CBC10EE02012DE4FCB6
:1000D8001209F20CBC10F9804C7F40120A2BE57013
:1000E80044B8FF120A2BE5692410FCECC3941050A5
:1000F800341209F20C80F4E5694440FF120A2BE53A
:100108007044B8FF120A2BE4FCC3743F9569FFECF6
:10011800C39F5011AB6BAA6CA96D8C8275830012BA
:100128000A060C80E4E57214603D146058240260ED
:1001380003020400120A1DE56EB4011BE4FCEC2462
:1001480010F582E433F583AB6BAA6CA96D120A062D
:100158000CBC10EA020400E4FCECFF741F1209F660
:100168000CBC10F50204007F40120A22E569241035
:10017800FCECC394104003020400ECFFC3741F128C
:1001880009F70C80EC120A1DE4FCC3743F9569FF63
:10019800ECC39F4003020400EC2410F582E433F51D
:1001A80083AB6BAA6CA96D120A060C80DDE4FCAB6C
:1001B8006BAA6CA96D8C82758300120980FFAE71E1
:1001C800A806088002C333D8FCFF74382CF8E64F21
:1001D800F6EC2410F582E433F583120980FFAE7142
:1001E800A806088002C333D8FCFF8C8275830012EE
:1001F8000980FEC374089571FDF8EE088002C313E8
:10020800D8FC4FFF74482CF8A607EC2410F582E4BC
:1002180033F583120980FFA805088002C313D8FCB0
:10022800FF74582CF8A6070CEC64107082E5721461
:1002380070030203031470030203782402600302AC
:1002480003E8E56E64017055E5694440FF120A2B26
:10025800E57044B8FF120A2BE4FC74382CF8E6FF6A
:10026800120A0A0CBC10F3120A1DE4FC74482CF89C
:10027800E6FF120A0A0CBC10F3E5694440FF120AB3
:100288002BE570240244B8FF120A2BE4FC74582CA6
:10029800F8E6FF120A0A0CBC10F30203E8E5694409
:1002A80040FF120A2BE57044B8FF120A2BE4FCC386
:1002B800740F9C2438F8E6FF120A0A0CBC10F012DE
:1002C8000A1DE4FCC3740F9C2448F8E6FF120A0ACE
:1002D8000CBC10F0E5694440FF120A2BE5702402BB
:1002E80044B8FF120A2BE4FCC3740F9C2458F8E6A8
:1002F800FF120A0A0CBC10F00203E87F40120A2B16
:10030800E57044B8FF120A2BC3743F9569FCECC32F
:100318009410500FC374109C2438F8E6FF120A0A90
:100328000C80EB7F40120A22C3743F9569FCECC332
:100338009410500FC374109C2448F8E6FF120A0A60
:100348000C80EB7F40120A2BE570240244B8FF12A0
:100358000A2BC3743F9569FCECC394104003020355
:10036800E8C374109C2458F8E6FF120A0A0C80E8C7
:10037800E5694440FF120A2BE57044B8FF120A2BC6
:10038800E4FCC3743F9569FFECC39F500C74382C90
:10039800F8E6FF120A0A0C80E9120A1DE4FCC3748D
:1003A8003F9569FFECC39F500C74482CF8E6FF1288
:1003B8000A0A0C80E9E5694440FF120A2BE570241B
:1003C8000244B8FF120A2BE4FCC3743F9569FFECA2
:1003D800C39F500C74582CF8E6FF120A0A0C80E9E7
:1003E800E4FC74382CF8E4F674482CF8E4F67458F5
:1003F8002CF8E4F60CBC10EAE56F6026147038E5BA
:100408006A0454077031E5694440FF120A2BE5700D
:1004180044B8FF120A2BE4FCE4FF120A0A0CBC10D1
:10042800F722E56A145407700E120A1DE4FCE4FF73
:07043800120A0A0CBC10F7C8
:01043F00229A
:02044000AB0708
:10044200ED131313541FFAED5407FFC374089FFEF4
:10045200E4FDEBD3943F400B7F01120A7774C02B6B
:10046200FB8011BB3F097F01120A77E4FB8005E4A0
:10047200FF120A77EE706CEB4440FF120A2BEA443B
:10048200B8FF120A2BED24FE601124027021E4FC55
:10049200E4FF120A0A0CBC10F78014E4FCC3743F98
:1004A2009BFFECC39F5008E4FF120A0A0C80EEEB9C
:1004B2004440FF120A2BEA120A27ED24FE601024A0
:1004C20002706AE4FCE4FF120A0A0CBC10F722E490
:1004D200FCC3743F9BFFECC39F5052E4FF120A0A15
:1004E2000C80EEEB4440FF120A2BEA44B8FF120ADA
:1004F2002BE4FCE4FF120A0A0CBC10F7EB4440FFA9
:10050200120A2BEA120A27E4FCE4FF120A0A0CBCC4
:1005120010F7EB4440FF120A2BEA240244B8FF1200
:0D0522000A2BE4FCE4FF120A0A0CBC10F7DF
:01052F0022A9
:1007AB00020920E493A3F8E493A34003F68001F23B
:1007BB0008DFF48029E493A3F85407240CC8C3334F
:1007CB00C4540F4420C8834004F456800146F6DF1E
:1007DB00E4800B01020408102040809008A6E47E00
:1007EB00019360BCA3FF543F30E509541FFEE49313
:1007FB00A360010ECF54C025E060A840B8E493A3DA
:10080B00FAE493A3F8E493A3C8C582C8CAC583CA04
:10081B00F0A3C8C582C8CAC583CADFE9DEE780BEBC
:01091F0000D7
:10096700BB010689828A83E0225002E722BBFE028E
:09097700E32289828A83E49322C1
:10098000BB010CE58229F582E5833AF583E022502C
:1009900006E92582F8E622BBFE06E92582F8E22276
:0D09A000E58229F582E5833AF583E4932290
:00000001FF
